{
  "address": "0xf5059a5D33d5853360D16C683c16e67980206f36",
  "abi": [
    {
      "constant": true,
      "inputs": [
        {
          "name": "uuid",
          "type": "bytes32"
        }
      ],
      "name": "getLastQuedAddress",
      "outputs": [
        {
          "name": "quedCapTableRegistryAddress",
          "type": "address"
        }
      ],
      "payable": false,
      "stateMutability": "view",
      "type": "function"
    },
    {
      "constant": true,
      "inputs": [],
      "name": "getCapTableRegistryAddress",
      "outputs": [
        {
          "name": "capTableRegistryAddress",
          "type": "address"
        }
      ],
      "payable": false,
      "stateMutability": "view",
      "type": "function"
    },
    {
      "constant": false,
      "inputs": [
        {
          "name": "uuid",
          "type": "bytes32"
        },
        {
          "name": "name",
          "type": "string"
        },
        {
          "name": "symbol",
          "type": "string"
        }
      ],
      "name": "createCapTable",
      "outputs": [],
      "payable": false,
      "stateMutability": "nonpayable",
      "type": "function"
    },
    {
      "inputs": [
        {
          "name": "capTableRegistryAddress",
          "type": "address"
        }
      ],
      "payable": false,
      "stateMutability": "nonpayable",
      "type": "constructor"
    }
  ],
  "transactionHash": "0x84fc1c286bec42a8a8eb0e2792b8856b369404830f7cad888d776f4850609690",
  "args": [
    "0x851356ae760d987E095750cCeb3bC6014560891C"
  ],
  "solcInputHash": "657188410db47fc7c03d48c1e76bb0ef",
  "bytecode": "0x608060405234801561001057600080fd5b506040516020806155608339810180604052602081101561003057600080fd5b505160018080556002805480830182557f405787fa12a823e0f2b7631cc41b3ba8828b3321ca811111fa75cd3aa3bb5ace9081018054600160a060020a031990811673bbb7a6cc5b0757d60a457f2a1a667aa53a13f51517909155600380548086019091557f6f7264696ec3a6726500000000000000000000000000000000000000000000007fc2575a0e9e593c00f959f8c92f12db2869c3395a3b0502d05e2516446f71f85b9091015582549384018355600092835292018054831690558054600160a060020a039093169290911691909117905561544b806101156000396000f3fe60806040523480156200001157600080fd5b5060043610620000495760e060020a600035046304ecf1dd81146200004e578063bb017419146200008a578063f42fd2cf1462000094575b600080fd5b6200006e600480360360208110156200006657600080fd5b503562000168565b60408051600160a060020a039092168252519081900360200190f35b6200006e620001ed565b6200016660048036036060811015620000ac57600080fd5b81359190810190604081016020820135640100000000811115620000cf57600080fd5b820183602082011115620000e257600080fd5b803590602001918460018302840111640100000000831117156200010557600080fd5b9193909290916020810190356401000000008111156200012457600080fd5b8201836020820111156200013757600080fd5b803590602001918460018302840111640100000000831117156200015a57600080fd5b509092509050620001fc565b005b600080546040805160e060020a6304ecf1dd028152600481018590529051600160a060020a03909216916304ecf1dd91602480820192602092909190829003018186803b158015620001b957600080fd5b505afa158015620001ce573d6000803e3d6000fd5b505050506040513d6020811015620001e557600080fd5b505192915050565b600054600160a060020a031690565b33600260018154811015156200020e57fe5b9060005260206000200160006101000a815481600160a060020a030219169083600160a060020a03160217905550606060038054806020026020016040519081016040528092919081815260200182805480156200028c57602002820191906000526020600020905b81548152602001906001019080831162000277575b50505050509050600085858585600154600287604051620002ad9062000564565b6040810184905260a080825281018790528060208101606082016080830160c084018c8c80828437600083820152601f01601f191690910186810385528a815260200190508a8a80828437600083820152601f01601f19169091018681038452885480825260209091019150889080156200035257602002820191906000526020600020905b8154600160a060020a0316815260019091019060200180831162000333575b50508581038252865181528651602091820191808901910280838360005b838110156200038a57818101518382015260200162000370565b505050509050019b505050505050505050505050604051809103906000f080158015620003bb573d6000803e3d6000fd5b506040805160e160020a634c1d96ab0281523360048201529051919250600160a060020a0383169163983b2d569160248082019260009290919082900301818387803b1580156200040b57600080fd5b505af115801562000420573d6000803e3d6000fd5b50506040805160e060020a633092afd50281523060048201529051600160a060020a0385169350633092afd59250602480830192600092919082900301818387803b1580156200046f57600080fd5b505af115801562000484573d6000803e3d6000fd5b50506040805160e060020a63f2fde38b0281523360048201529051600160a060020a038516935063f2fde38b9250602480830192600092919082900301818387803b158015620004d357600080fd5b505af1158015620004e8573d6000803e3d6000fd5b5050600080546040805160e260020a6306bfbb19028152600160a060020a038781166004830152602482018e90529151919092169450631afeec6493506044808301939282900301818387803b1580156200054257600080fd5b505af115801562000557573d6000803e3d6000fd5b5050505050505050505050565b614ead80620005738339019056fe60806040523480156200001157600080fd5b5060405162004ead38038062004ead833981018060405260a08110156200003757600080fd5b8101908080516401000000008111156200005057600080fd5b820160208101848111156200006457600080fd5b81516401000000008111828201871017156200007f57600080fd5b505092919060200180516401000000008111156200009c57600080fd5b82016020810184811115620000b057600080fd5b8151640100000000811182820187101715620000cb57600080fd5b50506020820151604090920180519194929391640100000000811115620000f157600080fd5b820160208101848111156200010557600080fd5b81518560208202830111640100000000821117156200012357600080fd5b505092919060200180516401000000008111156200014057600080fd5b820160208101848111156200015457600080fd5b81518560208202830111640100000000821117156200017257600080fd5b505060008054600160a060020a0319163317808255604051929550600160a060020a0316935091507f8be0079c531659141344cd1fd0a4f28419497f9722a3daafe3b4186f6b6457e0908290a3620001d3336401000000006200039f810204565b8451620001e89060039060208801906200070a565b508351620001fe9060049060208701906200070a565b50600060065560018310156200021357600080fd5b60058390556200022c82640100000000620003f1810204565b8051620002419060119060208401906200078f565b506007805462ff00001961ff001990911661010017166201000017905560408051808201909152600c81527f45524331343030546f6b656e00000000000000000000000000000000000000006020820152620002ac9030640100000000620040f4620004ca82021704565b60408051808201909152600a81527f4552433230546f6b656e000000000000000000000000000000000000000000006020820152620002fa9030640100000000620040f4620004ca82021704565b60408051808201909152600c81527f45524331343030546f6b656e0000000000000000000000000000000000000000602082015262000347906401000000006200453d620005da82021704565b60408051808201909152600a81527f4552433230546f6b656e00000000000000000000000000000000000000000000602082015262000394906401000000006200453d620005da82021704565b505050505062000879565b620003ba600282640100000000620041e16200067782021704565b604051600160a060020a038216907f6ae172837ea30b801fbfcdd4108aa1d5bf8ff775444fd70256b44e6bf3dfc3f690600090a250565b60005b60135481101562000452576000601460006013848154811015156200041557fe5b600091825260208083209190910154600160a060020a031683528201929092526040019020805460ff1916911515919091179055600101620003f4565b5060005b8151811015620004b05760016014600084848151811015156200047557fe5b602090810291909101810151600160a060020a03168252810191909152604001600020805460ff191691151591909117905560010162000456565b508051620004c6906013906020840190620007cc565b5050565b6000826040516020018082805190602001908083835b60208310620005015780518252601f199092019160209182019101620004e0565b51815160209384036101000a60001901801990921691161790526040805192909401828103601f19018352808552825192909101919091207f29965a1d00000000000000000000000000000000000000000000000000000000825230600483015260248201819052600160a060020a03881660448301529251929550731820a4b7618bde71dce8cdc73aab6c95905fad2494506329965a1d9350606480820193600093509182900301818387803b158015620005bc57600080fd5b505af1158015620005d1573d6000803e3d6000fd5b50505050505050565b6001806000836040516020018082805190602001908083835b60208310620006145780518252601f199092019160209182019101620005f3565b6001836020036101000a03801982511681845116808217855250505050505090500191505060405160208183030381529060405280519060200120815260200190815260200160002060006101000a81548160ff02191690831515021790555050565b600160a060020a03811615156200068d57600080fd5b620006a28282640100000000620006d2810204565b15620006ad57600080fd5b600160a060020a0316600090815260209190915260409020805460ff19166001179055565b6000600160a060020a0382161515620006ea57600080fd5b50600160a060020a03166000908152602091909152604090205460ff1690565b828054600181600116156101000203166002900490600052602060002090601f016020900481019282601f106200074d57805160ff19168380011785556200077d565b828001600101855582156200077d579182015b828111156200077d57825182559160200191906001019062000760565b506200078b92915062000832565b5090565b8280548282559060005260206000209081019282156200077d57916020028201828111156200077d57825182559160200191906001019062000760565b82805482825590600052602060002090810192821562000824579160200282015b82811115620008245782518254600160a060020a031916600160a060020a03909116178255602090920191600190910190620007ed565b506200078b92915062000852565b6200084f91905b808211156200078b576000815560010162000839565b90565b6200084f91905b808211156200078b578054600160a060020a031916815560010162000859565b61462480620008896000396000f3fe608060405234801561001057600080fd5b50600436106102b15760003560e060020a90048063861ed3ea11610177578063aa271e1a116100d8578063aa271e1a14610c34578063b10d6b4114610c5a578063b6363cf214610cf6578063bb3acde914610d24578063bcfdc0cf14610da7578063ca281fd914610daf578063dd62ed3e14610db7578063e77c646d14610de5578063ea74838a14610e5a578063ec9a6e8714610ec8578063ee532f3114610f36578063f2fde38b14610fc4578063f3d490db14610fea578063fad8b32a14611074576102b1565b8063861ed3ea146108985780638c0dee9c146108b55780638da5cb5b146109985780638f32d59b146109bc578063933964c7146109c4578063959b8c3f146109f257806395d89b4114610a185780639675193c14610a20578063983b2d5614610aa35780639865027514610ac957806398ddcec714610ad1578063a26734dc14610b5b578063a6f4f10514610b78578063a9059cbb14610c08576102b1565b80633092afd5116102215780633092afd51461062457806330e828031461064a578063313ce567146106765780634c783bf514610694578063556f0dc71461069c57806362eb0068146106a457806367c849191461071e57806369598efe146107a85780636c30d170146108005780636d77cad61461080857806370a082311461083c578063715018a614610862578063740ab8f41461086a5780637cc0c3a714610890576102b1565b8063010648ca146102b657806306fdde031461032d578063095ea7b3146103aa578063103ef9e1146103ea57806314d1e62f14610416578063168ecec51461044857806316e1aed41461047457806317ec83ca146104e957806318160ddd1461052f57806323b872dd14610537578063249cb3fa1461056d5780632535f762146105995780632f1cae851461061c575b600080fd5b61032b600480360360608110156102cc57600080fd5b81359190810190604081016020820135602060020a8111156102ed57600080fd5b8201836020820111156102ff57600080fd5b803590602001918460018302840111602060020a8311171561032057600080fd5b91935091503561109a565b005b61033561119a565b6040805160208082528351818301528351919283929083019185019080838360005b8381101561036f578181015183820152602001610357565b50505050905090810190601f16801561039c5780820380516001836020036101000a031916815260200191505b509250505060405180910390f35b6103d6600480360360408110156103c057600080fd5b50600160a060020a038135169060200135611231565b604080519115158252519081900360200190f35b61032b6004803603604081101561040057600080fd5b5080359060200135600160a060020a03166112e3565b6103d66004803603606081101561042c57600080fd5b50803590600160a060020a036020820135169060400135611347565b61032b6004803603604081101561045e57600080fd5b5080359060200135600160a060020a0316611403565b61032b6004803603604081101561048a57600080fd5b81359190810190604081016020820135602060020a8111156104ab57600080fd5b8201836020820111156104bd57600080fd5b803590602001918460208302840111602060020a831117156104de57600080fd5b509092509050611464565b61051d600480360360608110156104ff57600080fd5b50803590600160a060020a03602082013581169160400135166114b9565b60408051918252519081900360200190f35b61051d6114e9565b6103d66004803603606081101561054d57600080fd5b50600160a060020a038135811691602081013590911690604001356114ef565b61051d6004803603604081101561058357600080fd5b5080359060200135600160a060020a031661163a565b61032b600480360360608110156105af57600080fd5b600160a060020a0382351691602081013591810190606081016040820135602060020a8111156105de57600080fd5b8201836020820111156105f057600080fd5b803590602001918460018302840111602060020a8311171561061157600080fd5b5090925090506116a7565b6103d66116f0565b61032b6004803603602081101561063a57600080fd5b5035600160a060020a03166116ff565b61051d6004803603604081101561066057600080fd5b5080359060200135600160a060020a031661172d565b61067e611752565b6040805160ff9092168252519081900360200190f35b6103d6611757565b61051d611765565b61032b600480360360608110156106ba57600080fd5b813591602081013591810190606081016040820135602060020a8111156106e057600080fd5b8201836020820111156106f257600080fd5b803590602001918460018302840111602060020a8311171561071357600080fd5b50909250905061176b565b61032b6004803603608081101561073457600080fd5b813591600160a060020a036020820135169160408201359190810190608081016060820135602060020a81111561076a57600080fd5b82018360208201111561077c57600080fd5b803590602001918460018302840111602060020a8311171561079d57600080fd5b5090925090506117bc565b6107b0611872565b60408051602080825283518183015283519192839290830191858101910280838360005b838110156107ec5781810151838201526020016107d4565b505050509050019250505060405180910390f35b61032b6118c9565b6103d66004803603606081101561081e57600080fd5b50803590600160a060020a03602082013581169160400135166118ea565b61051d6004803603602081101561085257600080fd5b5035600160a060020a03166118ff565b61032b61191a565b6107b06004803603602081101561088057600080fd5b5035600160a060020a0316611977565b6107b06119e3565b6107b0600480360360208110156108ae57600080fd5b5035611a44565b61051d600480360360c08110156108cb57600080fd5b813591600160a060020a03602082013581169260408301359091169160608101359181019060a081016080820135602060020a81111561090a57600080fd5b82018360208201111561091c57600080fd5b803590602001918460018302840111602060020a8311171561093d57600080fd5b919390929091602081019035602060020a81111561095a57600080fd5b82018360208201111561096c57600080fd5b803590602001918460018302840111602060020a8311171561098d57600080fd5b509092509050611aaf565b6109a0611c7c565b60408051600160a060020a039092168252519081900360200190f35b6103d6611c8b565b61032b600480360360408110156109da57600080fd5b50600160a060020a0381351690602001351515611c9c565b61032b60048036036020811015610a0857600080fd5b5035600160a060020a0316611cbd565b610335611d2c565b61032b60048036036060811015610a3657600080fd5b600160a060020a0382351691602081013591810190606081016040820135602060020a811115610a6557600080fd5b820183602082011115610a7757600080fd5b803590602001918460018302840111602060020a83111715610a9857600080fd5b509092509050611d8d565b61032b60048036036020811015610ab957600080fd5b5035600160a060020a0316611e17565b61032b611e42565b61032b60048036036080811015610ae757600080fd5b813591600160a060020a036020820135169160408201359190810190608081016060820135602060020a811115610b1d57600080fd5b820183602082011115610b2f57600080fd5b803590602001918460018302840111602060020a83111715610b5057600080fd5b509092509050611e4d565b61051d60048036036020811015610b7157600080fd5b5035611eea565b61032b600480360360a0811015610b8e57600080fd5b600160a060020a038235169190810190604081016020820135602060020a811115610bb857600080fd5b820183602082011115610bca57600080fd5b803590602001918460018302840111602060020a83111715610beb57600080fd5b919350915080351515906020810135151590604001351515611efc565b6103d660048036036040811015610c1e57600080fd5b50600160a060020a038135169060200135611f5c565b6103d660048036036020811015610c4a57600080fd5b5035600160a060020a0316611f84565b610c7760048036036020811015610c7057600080fd5b5035611f97565b6040518080602001838152602001828103825284818151815260200191508051906020019080838360005b83811015610cba578181015183820152602001610ca2565b50505050905090810190601f168015610ce75780820380516001836020036101000a031916815260200191505b50935050505060405180910390f35b6103d660048036036040811015610d0c57600080fd5b50600160a060020a0381358116916020013516612075565b61032b60048036036060811015610d3a57600080fd5b600160a060020a0382351691602081013591810190606081016040820135602060020a811115610d6957600080fd5b820183602082011115610d7b57600080fd5b803590602001918460018302840111602060020a83111715610d9c57600080fd5b509092509050612088565b6107b0612192565b61032b6121e8565b61051d60048036036040811015610dcd57600080fd5b50600160a060020a0381358116916020013516612208565b61032b60048036036040811015610dfb57600080fd5b81359190810190604081016020820135602060020a811115610e1c57600080fd5b820183602082011115610e2e57600080fd5b803590602001918460018302840111602060020a83111715610e4f57600080fd5b509092509050612233565b61032b60048036036020811015610e7057600080fd5b810190602081018135602060020a811115610e8a57600080fd5b820183602082011115610e9c57600080fd5b803590602001918460208302840111602060020a83111715610ebd57600080fd5b509092509050612275565b61032b60048036036020811015610ede57600080fd5b810190602081018135602060020a811115610ef857600080fd5b820183602082011115610f0a57600080fd5b803590602001918460208302840111602060020a83111715610f2b57600080fd5b5090925090506122c4565b61032b60048036036080811015610f4c57600080fd5b600160a060020a03823581169260208101359091169160408201359190810190608081016060820135602060020a811115610f8657600080fd5b820183602082011115610f9857600080fd5b803590602001918460018302840111602060020a83111715610fb957600080fd5b5090925090506122e3565b61032b60048036036020811015610fda57600080fd5b5035600160a060020a031661236e565b61051d6004803603608081101561100057600080fd5b813591600160a060020a036020820135169160408201359190810190608081016060820135602060020a81111561103657600080fd5b82018360208201111561104857600080fd5b803590602001918460018302840111602060020a8311171561106957600080fd5b50909250905061238a565b61032b6004803603602081101561108a57600080fd5b5035600160a060020a03166123e8565b3360009081526014602052604090205460ff1615156110b857600080fd5b6040805160606020601f8601819004028201810183529181018481529091829190869086908190850183828082843760009201829052509385525050506020918201849052868152600a82526040902082518051919261111d928492909101906143c5565b5060208201518160010155905050837f89730c201d2df6a4cef4e892559e63e022078b0ee939d11b6ced61fb098b282484848460405180806020018381526020018281038252858582818152602001925080828437600083820152604051601f909101601f1916909201829003965090945050505050a250505050565b60038054604080516020601f60026000196101006001881615020190951694909404938401819004810282018101909252828152606093909290918301828280156112265780601f106111fb57610100808354040283529160200191611226565b820191906000526020600020905b81548152906001019060200180831161120957829003601f168201915b505050505090505b90565b6000600160a060020a038316151561127b576040805160e560020a62461bcd028152602060048201526002602482015260f160020a611a9b02604482015290519081900360640190fd5b336000818152600960209081526040808320600160a060020a03881680855290835292819020869055805186815290519293927f8c5be1e5ebec7d5bd14f71427d1e84f3dd0314c0f7b2291e5b200ac8c7c3b925929181900390910190a35060015b92915050565b3360008181526016602090815260408083208684528252808320600160a060020a0386168085529252808320805460ff1916600117905551909185917f3646a897c70797ecc134b0adc32f471b07bf1d6f451133b0384badab531e3fd69190a45050565b6000600160a060020a0383161515611391576040805160e560020a62461bcd028152602060048201526002602482015260f160020a611a9b02604482015290519081900360640190fd5b600084815260156020908152604080832033808552908352818420600160a060020a0388168086529084529382902086905581518681529151909288927ff061499aa77c2f6f5e25e34955a06623705344a88256cc861a121ec0bce5cfec929081900390910190a45060019392505050565b3360008181526016602090815260408083208684528252808320600160a060020a0386168085529252808320805460ff1916905551909185917f3b287c4f1bab4df949b33bceacef984f544dc5d5479930d00e4ee8c9d8dd96f29190a45050565b61146c611c8b565b151561147757600080fd5b6114b48383838080602002602001604051908101604052809392919081815260200183836020028082843760009201919091525061245492505050565b505050565b6000928352601560209081526040808520600160a060020a03948516865282528085209290931684525290205490565b60065490565b60006114fb3385612557565b806115295750600160a060020a03841660009081526009602090815260408083203384529091529020548211155b1515611567576040805160e560020a62461bcd028152602060048201526002602482015260f060020a61353302604482015290519081900360640190fd5b600160a060020a038416600090815260096020908152604080832033845290915290205482116115ee57600160a060020a03841660009081526009602090815260408083203384529091529020546115c5908363ffffffff6125d616565b600160a060020a0385166000908152600960209081526040808320338452909152902055611613565b600160a060020a03841660009081526009602090815260408083203384529091528120555b6116303385858560206040519081016040528060008152506125eb565b5060019392505050565b60008281526001602052604081205460ff161561169f5760405160200180807f455243313832305f4143434550545f4d4147494300000000000000000000000081525060140190506040516020818303038152906040528051906020012090506112dd565b5060006112dd565b6116ea3333868686868080601f0160208091040260200160405190810160405280939291908181526020018383808284376000920191909152506125eb92505050565b50505050565b60075462010000900460ff1690565b61170833611f84565b806117165750611716611c8b565b151561172157600080fd5b61172a81612760565b50565b600160a060020a03166000908152601060209081526040808320938352929052205490565b601290565b600754610100900460ff1690565b60055490565b6116ea8433338686868080601f0160208091040260200160405190810160405280939291908181526020018383808284376000920182905250604080516020810190915290815292506127a8915050565b6117c533611f84565b806117d357506117d3611c8b565b15156117de57600080fd5b60075462010000900460ff161515611828576040805160e560020a62461bcd028152602060048201526002602482015260f060020a61353502604482015290519081900360640190fd5b61186b8533868686868080601f01602080910402602001604051908101604052809392919081815260200183838082843760009201919091525061290092505050565b5050505050565b6060600b80548060200260200160405190810160405280929190818152602001828054801561122657602002820191906000526020600020905b8154815260200190600101908083116118ac575050505050905090565b6118d1611c8b565b15156118dc57600080fd5b6007805462ff000019169055565b60006118f7848484612a23565b949350505050565b600160a060020a031660009081526008602052604090205490565b611922611c8b565b151561192d57600080fd5b60008054604051600160a060020a03909116907f8be0079c531659141344cd1fd0a4f28419497f9722a3daafe3b4186f6b6457e0908390a360008054600160a060020a0319169055565b600160a060020a0381166000908152600e60209081526040918290208054835181840281018401909452808452606093928301828280156119d757602002820191906000526020600020905b8154815260200190600101908083116119c3575b50505050509050919050565b6060601380548060200260200160405190810160405280929190818152602001828054801561122657602002820191906000526020600020905b8154600160a060020a03168152600190910190602001808311611a1d575050505050905090565b6000818152601760209081526040918290208054835181840281018401909452808452606093928301828280156119d757602002820191906000526020600020905b8154600160a060020a03168152600190910190602001808311611a865750505050509050919050565b6000611abc89338a612a23565b80611af157506000898152601560209081526040808320600160a060020a038c16845282528083203384529091529020548611155b1515611b2f576040805160e560020a62461bcd028152602060048201526002602482015260f060020a61353302604482015290519081900360640190fd5b6000898152601560209081526040808320600160a060020a038c16845282528083203384529091529020548611611bcb576000898152601560209081526040808320600160a060020a038c1684528252808320338452909152902054611b9b908763ffffffff6125d616565b60008a8152601560209081526040808320600160a060020a038d1684528252808320338452909152902055611bf7565b6000898152601560209081526040808320600160a060020a038c16845282528083203384529091528120555b611c6f89338a8a8a8a8a8080601f01602080910402602001604051908101604052809392919081815260200183838082843760009201919091525050604080516020601f8e018190048102820181019092528c815292508c91508b9081908401838280828437600092019190915250612aac92505050565b9998505050505050505050565b600054600160a060020a031690565b600054600160a060020a0316331490565b611ca4611c8b565b1515611caf57600080fd5b611cb98282612d05565b5050565b600160a060020a038116331415611cd357600080fd5b600160a060020a0381166000818152601260209081526040808320338085529252808320805460ff19166001179055519092917ff4caeb2d6ca8932a215a353d0703c326ec2d81fc68170f320eb2ab49e9df61f991a350565b60048054604080516020601f60026000196101006001881615020190951694909404938401819004810282018101909252828152606093909290918301828280156112265780601f106111fb57610100808354040283529160200191611226565b611d973385612557565b1515611dd5576040805160e560020a62461bcd028152602060048201526002602482015260f360020a6106a702604482015290519081900360640190fd5b6116ea33858585858080601f016020809104026020016040519081016040528093929190818152602001838380828437600092019190915250612d9a92505050565b611e2033611f84565b80611e2e5750611e2e611c8b565b1515611e3957600080fd5b61172a81612efb565b611e4b33612760565b565b611e58853386612a23565b1515611e96576040805160e560020a62461bcd028152602060048201526002602482015260f360020a6106a702604482015290519081900360640190fd5b61186b85338686602060405190810160405280600081525087878080601f0160208091040260200160405190810160405280939291908181526020018383808284376000920191909152506127a892505050565b6000908152600d602052604090205490565b611f04611c8b565b1515611f0f57600080fd5b611f548686868080601f016020809104026020016040519081016040528093929190818152602001838380828437600092019190915250889250879150869050612f43565b505050505050565b6000611f7b3333858560206040519081016040528060008152506125eb565b50600192915050565b60006112dd60028363ffffffff612fff16565b6000818152600a602052604081205460609190600260001961010060018416150201909116041515611fc857600080fd5b6000838152600a602090815260409182902060018082015482548551600293821615610100026000190190911692909204601f810185900485028301850190955284825291939192909184918301828280156120655780601f1061203a57610100808354040283529160200191612065565b820191906000526020600020905b81548152906001019060200180831161204857829003601f168201915b5050505050915091509150915091565b60006120818383612557565b9392505050565b61209133611f84565b8061209f575061209f611c8b565b15156120aa57600080fd5b60075462010000900460ff1615156120f4576040805160e560020a62461bcd028152602060048201526002602482015260f060020a61353502604482015290519081900360640190fd5b6011541515612135576040805160e560020a62461bcd028152602060048201526002602482015260f060020a61353502604482015290519081900360640190fd5b6116ea6011600081548110151561214857fe5b906000526020600020015433868686868080601f01602080910402602001604051908101604052809392919081815260200183838082843760009201919091525061290092505050565b6060601180548060200260200160405190810160405280929190818152602001828054801561122657602002820191906000526020600020908154815260200190600101908083116118ac575050505050905090565b6121f0611c8b565b15156121fb57600080fd5b6007805461ff0019169055565b600160a060020a03918216600090815260096020908152604080832093909416825291909152205490565b6114b433338585858080601f016020809104026020016040519081016040528093929190818152602001838380828437600092019190915250612d9a92505050565b61227d611c8b565b151561228857600080fd5b611cb982828080602002602001604051908101604052809392919081815260200183836020028082843760009201919091525061303692505050565b6122cc611c8b565b15156122d757600080fd5b6114b460118383614443565b6122ed3386612557565b151561232b576040805160e560020a62461bcd028152602060048201526002602482015260f360020a6106a702604482015290519081900360640190fd5b61186b3386868686868080601f0160208091040260200160405190810160405280939291908181526020018383808284376000920191909152506125eb92505050565b612376611c8b565b151561238157600080fd5b61172a81613103565b60006123de863333888888888080601f016020809104026020016040519081016040528093929190818152602001838380828437600092018290525060408051602081019091529081529250612aac915050565b9695505050505050565b600160a060020a0381163314156123fe57600080fd5b600160a060020a0381166000818152601260209081526040808320338085529252808320805460ff19169055519092917f50546e66e5f44d728365dc3908c63bc5cfeeab470722c1677e3073a6ac294aa191a350565b60005b6000838152601760205260409020548110156124d05760008381526018602090815260408083206017909252822080548391908590811061249457fe5b600091825260208083209190910154600160a060020a031683528201929092526040019020805460ff1916911515919091179055600101612457565b5060005b81518110156125375760008381526018602052604081208351600192908590859081106124fd57fe5b602090810291909101810151600160a060020a03168252810191909152604001600020805460ff19169115159190911790556001016124d4565b50600082815260176020908152604090912082516114b49284019061447e565b600081600160a060020a031683600160a060020a0316148061259e5750600160a060020a0380841660009081526012602090815260408083209386168352929052205460ff165b806120815750600754610100900460ff16801561208157505050600160a060020a031660009081526014602052604090205460ff1690565b6000828211156125e557600080fd5b50900390565b601154151561262c576040805160e560020a62461bcd028152602060048201526002602482015260f060020a61353502604482015290519081900360640190fd5b816000805b60115481101561271857600160a060020a0387166000908152601060205260408120601180549192918490811061266457fe5b9060005260206000200154815260200190815260200160002054915081831115156126cb576126c160118281548110151561269b57fe5b906000526020600020015489898987896020604051908101604052806000815250612aac565b5060009250612718565b8115612710576127096011828154811015156126e357fe5b906000526020600020015489898986896020604051908101604052806000815250612aac565b5081830392505b600101612631565b508115612757576040805160e560020a62461bcd028152602060048201526002602482015260f160020a611a9902604482015290519081900360640190fd5b50505050505050565b61277160028263ffffffff61317316565b604051600160a060020a038216907fe94479a9f7e1952cc78f2d6baab678adc1b772d936c6583def489e524cb6669290600090a250565b600160a060020a038416600090815260106020908152604080832089845290915290205483111561280b576040805160e560020a62461bcd028152602060048201526002602482015260f160020a611a9902604482015290519081900360640190fd5b61281b86868660008787876131bf565b61282b86868660008787876133d7565b612836848785613515565b612842858585856137d7565b83600160a060020a031685600160a060020a0316877fce306c3dbc4a497124b5a4f2be8388b41084c1d74663da27ecee1186c00239bf86856040518083815260200180602001828103825283818151815260200191508051906020019080838360005b838110156128bd5781810151838201526020016128a5565b50505050905090810190601f1680156128ea5780820380516001836020036101000a031916815260200191505b50935050505060405180910390a4505050505050565b6129208585600086868660206040519081016040528060008152506133d7565b61292c84848484613a46565b612937838684613c6a565b612957858560008686866020604051908101604052806000815250613db8565b82600160a060020a031684600160a060020a0316867ff0ded82afbb1bb3ff3fc48cb2a26584aa84e4af0bf309c804ecdb94d0f6a98bb8585604051808381526020018060200180602001838103835284818151815260200191508051906020019080838360005b838110156129d65781810151838201526020016129be565b50505050905090810190601f168015612a035780820380516001836020036101000a031916815260200191505b509283039052506000815260408051918290030192509050a45050505050565b6000612a2f8383612557565b80612a675750600160a060020a03808316600090815260166020908152604080832088845282528083209387168352929052205460ff165b806118f75750600754610100900460ff1680156118f7575050506000918252601860209081526040808420600160a060020a0393909316845291905290205460ff1690565b600160a060020a03851660009081526010602090815260408083208a8452909152812054841115612b0f576040805160e560020a62461bcd028152602060048201526002602482015260f160020a611a9902604482015290519081900360640190fd5b8151889015801590612b2357506040845110155b15612b3557612b328985613ef6565b90505b612b44898989898989896131bf565b612b53898989898989896133d7565b612b5e878a87613515565b612b69878787613f22565b612b74868287613c6a565b612b8381898989898989613db8565b85600160a060020a031687600160a060020a03168a7fff4e9a26af4eb73b8bacfaa4abd4fea03d9448e7b912dc5ff4019048875aa2d48b8989896040518085600160a060020a0316600160a060020a031681526020018481526020018060200180602001838103835285818151815260200191508051906020019080838360005b83811015612c1c578181015183820152602001612c04565b50505050905090810190601f168015612c495780820380516001836020036101000a031916815260200191505b50838103825284518152845160209182019186019080838360005b83811015612c7c578181015183820152602001612c64565b50505050905090810190601f168015612ca95780820380516001836020036101000a031916815260200191505b50965050505050505060405180910390a4808914612cf95760408051868152905182918b917f67c8ba31d2dd11f1384577b3405b04ed91eed1231e408432ad2458cab37b2fa19181900360200190a35b98975050505050505050565b612d446040805190810160405280600a81526020017f4552433230546f6b656e00000000000000000000000000000000000000000000815250836140f4565b612d836040805190810160405280600c81526020017f45524331343030546f6b656e0000000000000000000000000000000000000000815250836140f4565b8015611cb9576007805460ff191660011790555050565b6011541515612ddb576040805160e560020a62461bcd028152602060048201526002602482015260f060020a61353502604482015290519081900360640190fd5b816000805b601154811015612ebc57600160a060020a03861660009081526010602052604081206011805491929184908110612e1357fe5b906000526020600020015481526020019081526020016000205491508183111515612e7857612e6f601182815481101515612e4a57fe5b90600052602060002001548888868860206040519081016040528060008152506127a8565b60009250612ebc565b612eaf601182815481101515612e8a57fe5b90600052602060002001548888858860206040519081016040528060008152506127a8565b8183039250600101612de0565b508115611f54576040805160e560020a62461bcd028152602060048201526002602482015260f160020a611a9902604482015290519081900360640190fd5b612f0c60028263ffffffff6141e116565b604051600160a060020a038216907f6ae172837ea30b801fbfcdd4108aa1d5bf8ff775444fd70256b44e6bf3dfc3f690600090a250565b6000612f4f308661422f565b9050600160a060020a03811615801590612f665750835b15612fa357612f7481611f84565b15612f8257612f8281612760565b600160a060020a0381166000908152601460205260409020805460ff191690555b612fad85876140f4565b828015612fc05750612fbe86611f84565b155b15612fce57612fce86612efb565b8115611f5457600160a060020a0386166000908152601460205260409020805460ff19166001179055505050505050565b6000600160a060020a038216151561301657600080fd5b50600160a060020a03166000908152602091909152604090205460ff1690565b60005b6013548110156130945760006014600060138481548110151561305857fe5b600091825260208083209190910154600160a060020a031683528201929092526040019020805460ff1916911515919091179055600101613039565b5060005b81518110156130ef5760016014600084848151811015156130b557fe5b602090810291909101810151600160a060020a03168252810191909152604001600020805460ff1916911515919091179055600101613098565b508051611cb990601390602084019061447e565b600160a060020a038116151561311857600080fd5b60008054604051600160a060020a03808516939216917f8be0079c531659141344cd1fd0a4f28419497f9722a3daafe3b4186f6b6457e091a360008054600160a060020a031916600160a060020a0392909216919091179055565b600160a060020a038116151561318857600080fd5b6131928282612fff565b151561319d57600080fd5b600160a060020a0316600090815260209190915260409020805460ff19169055565b6000613200866040805190810160405280601381526020017f45524331343030546f6b656e7353656e6465720000000000000000000000000081525061422f565b9050600160a060020a038116156133cd5780600160a060020a0316634e755a546000368b8b8b8b8b8b8b6040518a63ffffffff1660e060020a028152600401808060200189815260200188600160a060020a0316600160a060020a0316815260200187600160a060020a0316600160a060020a0316815260200186600160a060020a0316600160a060020a03168152602001858152602001806020018060200184810384528d8d828181526020019250808284376000838201819052601f909101601f19169092018681038552885181528851602091820193918a019250908190849084905b838110156132fe5781810151838201526020016132e6565b50505050905090810190601f16801561332b5780820380516001836020036101000a031916815260200191505b50848103825285518152855160209182019187019080838360005b8381101561335e578181015183820152602001613346565b50505050905090810190601f16801561338b5780820380516001836020036101000a031916815260200191505b509c50505050505050505050505050600060405180830381600087803b1580156133b457600080fd5b505af11580156133c8573d6000803e3d6000fd5b505050505b5050505050505050565b6000613418306040805190810160405280601681526020017f45524331343030546f6b656e7356616c696461746f720000000000000000000081525061422f565b9050600160a060020a038116156133cd5780600160a060020a031663520faa766000368b8b8b8b8b8b8b6040518a63ffffffff1660e060020a028152600401808060200189815260200188600160a060020a0316600160a060020a0316815260200187600160a060020a0316600160a060020a0316815260200186600160a060020a0316600160a060020a03168152602001858152602001806020018060200184810384528d8d828181526020019250808284376000838201819052601f909101601f19169092018681038552885181528851602091820193918a01925090819084908490838110156132fe5781810151838201526020016132e6565b600160a060020a0383166000908152601060209081526040808320858452909152902054613549908263ffffffff6125d616565b600160a060020a0384166000908152601060209081526040808320868452825280832093909355600d90522054613586908263ffffffff6125d616565b6000838152600d602052604090208190551515613667576000828152600c60205260408120549081116135eb576040805160e560020a62461bcd028152602060048201526002602482015260f460020a61035302604482015290519081900360640190fd5b600b805460009190600019810190811061360157fe5b9060005260206000200154905080600b6001840381548110151561362157fe5b6000918252602080832090910192909255828152600c90915260409020829055600b8054600019019061365490826144df565b5050506000828152600c60205260408120555b600160a060020a038316600090815260106020908152604080832085845290915290205415156114b457600160a060020a0383166000908152600f602090815260408083208584529091528120549081116136f4576040805160e560020a62461bcd028152602060048201526002602482015260f460020a61035302604482015290519081900360640190fd5b600160a060020a0384166000908152600e602052604081208054600019810190811061371c57fe5b9060005260206000200154905080600e600087600160a060020a0316600160a060020a031681526020019081526020016000206001840381548110151561375f57fe5b6000918252602080832090910192909255600160a060020a038716808252600f835260408083208584528452808320869055908252600e90925220805460001901906137ab90826144df565b505050600160a060020a0383166000908152600f60209081526040808320858452909152812055505050565b60075460ff161561381a576040805160e560020a62461bcd028152602060048201526002602482015260f260020a610d4d02604482015290519081900360640190fd5b61382382614335565b1515613861576040805160e560020a62461bcd028152602060048201526002602482015260f460020a61035302604482015290519081900360640190fd5b600160a060020a03831615156138a9576040805160e560020a62461bcd028152602060048201526002602482015260f160020a611a9b02604482015290519081900360640190fd5b600160a060020a038316600090815260086020526040902054821115613901576040805160e560020a62461bcd028152602060048201526002602482015260f160020a611a9902604482015290519081900360640190fd5b600160a060020a03831660009081526008602052604090205461392a908363ffffffff6125d616565b600160a060020a038416600090815260086020526040902055600654613956908363ffffffff6125d616565b60068190555082600160a060020a031684600160a060020a03167fb7d0d6b60740753e9f16692a2f479472a1385aec2420fa43225b02f2ffa1afe784846040518083815260200180602001828103825283818151815260200191508051906020019080838360005b838110156139d65781810151838201526020016139be565b50505050905090810190601f168015613a035780820380516001836020036101000a031916815260200191505b50935050505060405180910390a3604080518381529051600091600160a060020a038616916000805160206145d98339815191529181900360200190a350505050565b60075460ff1615613a89576040805160e560020a62461bcd028152602060048201526002602482015260f260020a610d4d02604482015290519081900360640190fd5b613a9282614335565b1515613ad0576040805160e560020a62461bcd028152602060048201526002602482015260f460020a61035302604482015290519081900360640190fd5b600160a060020a0383161515613b18576040805160e560020a62461bcd028152602060048201526002602482015260f060020a61353702604482015290519081900360640190fd5b600654613b2b908363ffffffff61436416565b600655600160a060020a038316600090815260086020526040902054613b57908363ffffffff61436416565b6008600085600160a060020a0316600160a060020a031681526020019081526020016000208190555082600160a060020a031684600160a060020a03167f0e9905d62635f049c2f4e11678ebf9dc3d1f8c4a653e290759b772e47ba00d0084846040518083815260200180602001828103825283818151815260200191508051906020019080838360005b83811015613bfa578181015183820152602001613be2565b50505050905090810190601f168015613c275780820380516001836020036101000a031916815260200191505b50935050505060405180910390a3604080518381529051600160a060020a038516916000916000805160206145d98339815191529181900360200190a350505050565b80156114b457600160a060020a0383166000908152600f602090815260408083208584529091529020541515613cde57600160a060020a0383166000818152600e602090815260408083208054600181018255818552838520018790559383529254600f8252838320868452909152919020555b600160a060020a0383166000908152601060209081526040808320858452909152902054613d12908263ffffffff61436416565b600160a060020a0384166000908152601060209081526040808320868452825280832093909355600c905220541515613d8557600b80546001810182557f0175b7a638427703f0dbe7bb9bbf987a2551717b34e79f33b5b1008d1fa01db901839055546000838152600c60205260409020555b6000828152600d6020526040902054613da4908263ffffffff61436416565b6000838152600d6020526040902055505050565b6000613df9856040805190810160405280601681526020017f45524331343030546f6b656e73526563697069656e740000000000000000000081525061422f565b9050600160a060020a038116156133cd5780600160a060020a031663f464b5766000368b8b8b8b8b8b8b6040518a63ffffffff1660e060020a028152600401808060200189815260200188600160a060020a0316600160a060020a0316815260200187600160a060020a0316600160a060020a0316815260200186600160a060020a0316600160a060020a03168152602001858152602001806020018060200184810384528d8d828181526020019250808284376000838201819052601f909101601f19169092018681038552885181528851602091820193918a01925090819084908490838110156132fe5781810151838201526020016132e6565b60208101516000906000199080821415613f165760408401519250613f1a565b8492505b505092915050565b60075460ff1615613f65576040805160e560020a62461bcd028152602060048201526002602482015260f260020a610d4d02604482015290519081900360640190fd5b613f6e81614335565b1515613fac576040805160e560020a62461bcd028152602060048201526002602482015260f460020a61035302604482015290519081900360640190fd5b600160a060020a0382161515613ff4576040805160e560020a62461bcd028152602060048201526002602482015260f060020a61353702604482015290519081900360640190fd5b600160a060020a03831660009081526008602052604090205481111561404c576040805160e560020a62461bcd028152602060048201526002602482015260f160020a611a9902604482015290519081900360640190fd5b600160a060020a038316600090815260086020526040902054614075908263ffffffff6125d616565b600160a060020a0380851660009081526008602052604080822093909355908416815220546140aa908263ffffffff61436416565b600160a060020a0380841660008181526008602090815260409182902094909455805185815290519193928716926000805160206145d983398151915292918290030190a3505050565b6000826040516020018082805190602001908083835b602083106141295780518252601f19909201916020918201910161410a565b51815160209384036101000a60001901801990921691161790526040805192909401828103601f190183528085528251929091019190912060e060020a6329965a1d02825230600483015260248201819052600160a060020a03881660448301529251929550731820a4b7618bde71dce8cdc73aab6c95905fad2494506329965a1d9350606480820193600093509182900301818387803b1580156141cd57600080fd5b505af1158015612757573d6000803e3d6000fd5b600160a060020a03811615156141f657600080fd5b6142008282612fff565b1561420a57600080fd5b600160a060020a0316600090815260209190915260409020805460ff19166001179055565b600080826040516020018082805190602001908083835b602083106142655780518252601f199092019160209182019101614246565b51815160209384036101000a60001901801990921691161790526040805192909401828103601f1901835280855282519282019290922060e160020a63555ddc65028352600160a060020a038b166004840152602483018190529351939650731820a4b7618bde71dce8cdc73aab6c95905fad24955063aabbb8ca94506044808301949193509091829003018186803b15801561430157600080fd5b505afa158015614315573d6000803e3d6000fd5b505050506040513d602081101561432b57600080fd5b5051949350505050565b600554600090829061435d90614351838263ffffffff61437616565b9063ffffffff61439a16565b1492915050565b60008282018381101561208157600080fd5b600080821161438457600080fd5b6000828481151561439157fe5b04949350505050565b60008215156143ab575060006112dd565b8282028284828115156143ba57fe5b041461208157600080fd5b828054600181600116156101000203166002900490600052602060002090601f016020900481019282601f1061440657805160ff1916838001178555614433565b82800160010185558215614433579182015b82811115614433578251825591602001919060010190614418565b5061443f9291506144ff565b5090565b828054828255906000526020600020908101928215614433579160200282015b82811115614433578235825591602001919060010190614463565b8280548282559060005260206000209081019282156144d3579160200282015b828111156144d35782518254600160a060020a031916600160a060020a0390911617825560209092019160019091019061449e565b5061443f929150614519565b8154818355818111156114b4576000838152602090206114b49181019083015b61122e91905b8082111561443f5760008155600101614505565b61122e91905b8082111561443f578054600160a060020a031916815560010161451f565b6001806000836040516020018082805190602001908083835b602083106145755780518252601f199092019160209182019101614556565b6001836020036101000a03801982511681845116808217855250505050505090500191505060405160208183030381529060405280519060200120815260200190815260200160002060006101000a81548160ff0219169083151502179055505056feddf252ad1be2c89b69c2b068fc378daa952ba7f163c4a11628f55a4df523b3efa165627a7a723058209f1360931be48f61e47baa7e53b0318807a457f775b49dd5f925d1500afaffa10029a165627a7a723058205193b53627cfeacf594325b11d9c059a9ada3c94679127b8ed4c0be5162c99ab0029",
  "devdoc": {
    "methods": {}
  },
  "userdoc": {
    "methods": {}
  }
}